{
  "_format": "hh-sol-artifact-1",
  "contractName": "NexusGuardBounty",
  "sourceName": "contracts/NexusGuardBounty.sol",
  "abi": [
    {
      "inputs": [
        {
          "internalType": "address",
          "name": "_oracleAddress",
          "type": "address"
        },
        {
          "internalType": "uint256",
          "name": "_feeBasisPoints",
          "type": "uint256"
        }
      ],
      "stateMutability": "nonpayable",
      "type": "constructor"
    },
    {
      "inputs": [
        {
          "internalType": "address",
          "name": "owner",
          "type": "address"
        }
      ],
      "name": "OwnableInvalidOwner",
      "type": "error"
    },
    {
      "inputs": [
        {
          "internalType": "address",
          "name": "account",
          "type": "address"
        }
      ],
      "name": "OwnableUnauthorizedAccount",
      "type": "error"
    },
    {
      "inputs": [],
      "name": "ReentrancyGuardReentrantCall",
      "type": "error"
    },
    {
      "inputs": [
        {
          "internalType": "address",
          "name": "token",
          "type": "address"
        }
      ],
      "name": "SafeERC20FailedOperation",
      "type": "error"
    },
    {
      "anonymous": false,
      "inputs": [
        {
          "indexed": true,
          "internalType": "string",
          "name": "bugId",
          "type": "string"
        },
        {
          "indexed": true,
          "internalType": "address",
          "name": "sponsor",
          "type": "address"
        },
        {
          "indexed": false,
          "internalType": "uint256",
          "name": "amount",
          "type": "uint256"
        },
        {
          "indexed": false,
          "internalType": "uint256",
          "name": "timestamp",
          "type": "uint256"
        }
      ],
      "name": "BountyCancelled",
      "type": "event"
    },
    {
      "anonymous": false,
      "inputs": [
        {
          "indexed": true,
          "internalType": "string",
          "name": "bugId",
          "type": "string"
        },
        {
          "indexed": true,
          "internalType": "address",
          "name": "contributor",
          "type": "address"
        },
        {
          "indexed": false,
          "internalType": "uint256",
          "name": "amount",
          "type": "uint256"
        },
        {
          "indexed": false,
          "internalType": "address",
          "name": "tokenAddress",
          "type": "address"
        },
        {
          "indexed": false,
          "internalType": "uint256",
          "name": "timestamp",
          "type": "uint256"
        }
      ],
      "name": "BountyPaid",
      "type": "event"
    },
    {
      "anonymous": false,
      "inputs": [
        {
          "indexed": false,
          "internalType": "uint256",
          "name": "oldFee",
          "type": "uint256"
        },
        {
          "indexed": false,
          "internalType": "uint256",
          "name": "newFee",
          "type": "uint256"
        }
      ],
      "name": "FeeUpdated",
      "type": "event"
    },
    {
      "anonymous": false,
      "inputs": [
        {
          "indexed": true,
          "internalType": "address",
          "name": "oldOracle",
          "type": "address"
        },
        {
          "indexed": true,
          "internalType": "address",
          "name": "newOracle",
          "type": "address"
        }
      ],
      "name": "OracleUpdated",
      "type": "event"
    },
    {
      "anonymous": false,
      "inputs": [
        {
          "indexed": true,
          "internalType": "address",
          "name": "previousOwner",
          "type": "address"
        },
        {
          "indexed": true,
          "internalType": "address",
          "name": "newOwner",
          "type": "address"
        }
      ],
      "name": "OwnershipTransferred",
      "type": "event"
    },
    {
      "anonymous": false,
      "inputs": [
        {
          "indexed": true,
          "internalType": "string",
          "name": "bugId",
          "type": "string"
        },
        {
          "indexed": true,
          "internalType": "address",
          "name": "contributor",
          "type": "address"
        },
        {
          "indexed": false,
          "internalType": "uint256",
          "name": "timestamp",
          "type": "uint256"
        }
      ],
      "name": "PatchSubmitted",
      "type": "event"
    },
    {
      "anonymous": false,
      "inputs": [
        {
          "indexed": true,
          "internalType": "string",
          "name": "bugId",
          "type": "string"
        },
        {
          "indexed": true,
          "internalType": "address",
          "name": "sponsor",
          "type": "address"
        },
        {
          "indexed": false,
          "internalType": "address",
          "name": "tokenAddress",
          "type": "address"
        },
        {
          "indexed": false,
          "internalType": "uint256",
          "name": "amount",
          "type": "uint256"
        },
        {
          "indexed": false,
          "internalType": "uint256",
          "name": "timestamp",
          "type": "uint256"
        }
      ],
      "name": "VulnerabilityFound",
      "type": "event"
    },
    {
      "inputs": [],
      "name": "NATIVE_TOKEN",
      "outputs": [
        {
          "internalType": "address",
          "name": "",
          "type": "address"
        }
      ],
      "stateMutability": "view",
      "type": "function"
    },
    {
      "inputs": [
        {
          "internalType": "string",
          "name": "bugId",
          "type": "string"
        }
      ],
      "name": "cancelBounty",
      "outputs": [],
      "stateMutability": "nonpayable",
      "type": "function"
    },
    {
      "inputs": [
        {
          "internalType": "string",
          "name": "bugId",
          "type": "string"
        },
        {
          "internalType": "address",
          "name": "tokenAddress",
          "type": "address"
        },
        {
          "internalType": "uint256",
          "name": "amount",
          "type": "uint256"
        }
      ],
      "name": "createBounty",
      "outputs": [],
      "stateMutability": "payable",
      "type": "function"
    },
    {
      "inputs": [],
      "name": "feeBasisPoints",
      "outputs": [
        {
          "internalType": "uint256",
          "name": "",
          "type": "uint256"
        }
      ],
      "stateMutability": "view",
      "type": "function"
    },
    {
      "inputs": [
        {
          "internalType": "string",
          "name": "bugId",
          "type": "string"
        }
      ],
      "name": "getBounty",
      "outputs": [
        {
          "components": [
            {
              "internalType": "address",
              "name": "sponsor",
              "type": "address"
            },
            {
              "internalType": "address",
              "name": "tokenAddress",
              "type": "address"
            },
            {
              "internalType": "uint256",
              "name": "amount",
              "type": "uint256"
            },
            {
              "internalType": "address",
              "name": "contributor",
              "type": "address"
            },
            {
              "internalType": "enum NexusGuardBounty.BountyStatus",
              "name": "status",
              "type": "uint8"
            },
            {
              "internalType": "uint256",
              "name": "createdAt",
              "type": "uint256"
            },
            {
              "internalType": "uint256",
              "name": "paidAt",
              "type": "uint256"
            }
          ],
          "internalType": "struct NexusGuardBounty.Bounty",
          "name": "",
          "type": "tuple"
        }
      ],
      "stateMutability": "view",
      "type": "function"
    },
    {
      "inputs": [
        {
          "internalType": "string",
          "name": "bugId",
          "type": "string"
        }
      ],
      "name": "getBountyStatus",
      "outputs": [
        {
          "internalType": "enum NexusGuardBounty.BountyStatus",
          "name": "",
          "type": "uint8"
        }
      ],
      "stateMutability": "view",
      "type": "function"
    },
    {
      "inputs": [
        {
          "internalType": "address",
          "name": "sponsor",
          "type": "address"
        }
      ],
      "name": "getSponsorBounties",
      "outputs": [
        {
          "internalType": "string[]",
          "name": "",
          "type": "string[]"
        }
      ],
      "stateMutability": "view",
      "type": "function"
    },
    {
      "inputs": [],
      "name": "oracleAddress",
      "outputs": [
        {
          "internalType": "address",
          "name": "",
          "type": "address"
        }
      ],
      "stateMutability": "view",
      "type": "function"
    },
    {
      "inputs": [],
      "name": "owner",
      "outputs": [
        {
          "internalType": "address",
          "name": "",
          "type": "address"
        }
      ],
      "stateMutability": "view",
      "type": "function"
    },
    {
      "inputs": [],
      "name": "pendingNativeFees",
      "outputs": [
        {
          "internalType": "uint256",
          "name": "",
          "type": "uint256"
        }
      ],
      "stateMutability": "view",
      "type": "function"
    },
    {
      "inputs": [
        {
          "internalType": "address",
          "name": "",
          "type": "address"
        }
      ],
      "name": "pendingTokenFees",
      "outputs": [
        {
          "internalType": "uint256",
          "name": "",
          "type": "uint256"
        }
      ],
      "stateMutability": "view",
      "type": "function"
    },
    {
      "inputs": [
        {
          "internalType": "string",
          "name": "bugId",
          "type": "string"
        },
        {
          "internalType": "address payable",
          "name": "contributor",
          "type": "address"
        }
      ],
      "name": "releaseBounty",
      "outputs": [],
      "stateMutability": "nonpayable",
      "type": "function"
    },
    {
      "inputs": [],
      "name": "renounceOwnership",
      "outputs": [],
      "stateMutability": "nonpayable",
      "type": "function"
    },
    {
      "inputs": [
        {
          "internalType": "uint256",
          "name": "newFeeBasisPoints",
          "type": "uint256"
        }
      ],
      "name": "setFee",
      "outputs": [],
      "stateMutability": "nonpayable",
      "type": "function"
    },
    {
      "inputs": [
        {
          "internalType": "address",
          "name": "newOracle",
          "type": "address"
        }
      ],
      "name": "setOracle",
      "outputs": [],
      "stateMutability": "nonpayable",
      "type": "function"
    },
    {
      "inputs": [
        {
          "internalType": "string",
          "name": "bugId",
          "type": "string"
        },
        {
          "internalType": "address",
          "name": "contributor",
          "type": "address"
        }
      ],
      "name": "submitPatch",
      "outputs": [],
      "stateMutability": "nonpayable",
      "type": "function"
    },
    {
      "inputs": [
        {
          "internalType": "address",
          "name": "newOwner",
          "type": "address"
        }
      ],
      "name": "transferOwnership",
      "outputs": [],
      "stateMutability": "nonpayable",
      "type": "function"
    },
    {
      "inputs": [],
      "name": "withdrawNativeFees",
      "outputs": [],
      "stateMutability": "nonpayable",
      "type": "function"
    },
    {
      "inputs": [
        {
          "internalType": "address",
          "name": "tokenAddress",
          "type": "address"
        }
      ],
      "name": "withdrawTokenFees",
      "outputs": [],
      "stateMutability": "nonpayable",
      "type": "function"
    },
    {
      "stateMutability": "payable",
      "type": "receive"
    }
  ],
  "bytecode": "0x60806040523480156200001157600080fd5b50604051620020c7380380620020c78339810160408190526200003491620001bc565b33806200005c57604051631e4fbdf760e01b8152600060048201526024015b60405180910390fd5b62000067816200016c565b5060017f9b779b17422d0df92223018b32b4d1fa46e071723d6817e2486d003becc55f00556001600160a01b038216620000e45760405162461bcd60e51b815260206004820152601f60248201527f4e6578757347756172643a207a65726f206f7261636c65206164647265737300604482015260640162000053565b6103e8811115620001425760405162461bcd60e51b815260206004820152602160248201527f4e6578757347756172643a206665652063616e6e6f74206578636565642031306044820152602560f81b606482015260840162000053565b600180546001600160a01b0319166001600160a01b039390931692909217909155600455620001f8565b600080546001600160a01b038381166001600160a01b0319831681178455604051919092169283917f8be0079c531659141344cd1fd0a4f28419497f9722a3daafe3b4186f6b6457e09190a35050565b60008060408385031215620001d057600080fd5b82516001600160a01b0381168114620001e857600080fd5b6020939093015192949293505050565b611ebf80620002086000396000f3fe6080604052600436106101185760003560e01c80637adbf973116100a0578063b8606eef11610064578063b8606eef1461035f578063f2fde38b14610375578063f414ea8814610395578063f62722a0146103b5578063f88943fc146103d557600080fd5b80637adbf973146102b45780638da5cb5b146102d45780639c4474ae146102f2578063a0ff9f001461031f578063a89ae4ba1461033f57600080fd5b806342c4ce95116100e757806342c4ce951461020557806357f5606114610232578063629609fd1461025f57806369fe0e2d1461027f578063715018a61461029f57600080fd5b80630e93ee4114610185578063212315b7146101ae57806331f7d964146101c55780633bbb45e2146101f257600080fd5b366101805760405162461bcd60e51b815260206004820152602d60248201527f4e6578757347756172643a2075736520637265617465426f756e74792829207460448201526c6f2066756e6420657363726f7760981b60648201526084015b60405180910390fd5b600080fd5b34801561019157600080fd5b5061019b60055481565b6040519081526020015b60405180910390f35b3480156101ba57600080fd5b506101c3610402565b005b3480156101d157600080fd5b506101da600081565b6040516001600160a01b0390911681526020016101a5565b6101c36102003660046119df565b61053f565b34801561021157600080fd5b50610225610220366004611a39565b6108db565b6040516101a59190611a81565b34801561023e57600080fd5b5061025261024d366004611afb565b6109ca565b6040516101a59190611b70565b34801561026b57600080fd5b506101c361027a366004611afb565b610b0d565b34801561028b57600080fd5b506101c361029a366004611bd4565b610dcb565b3480156102ab57600080fd5b506101c3610e70565b3480156102c057600080fd5b506101c36102cf366004611a39565b610e82565b3480156102e057600080fd5b506000546001600160a01b03166101da565b3480156102fe57600080fd5b5061031261030d366004611afb565b610f3c565b6040516101a59190611bed565b34801561032b57600080fd5b506101c361033a366004611c01565b610fc6565b34801561034b57600080fd5b506001546101da906001600160a01b031681565b34801561036b57600080fd5b5061019b60045481565b34801561038157600080fd5b506101c3610390366004611a39565b61122f565b3480156103a157600080fd5b506101c36103b0366004611c01565b61126a565b3480156103c157600080fd5b506101c36103d0366004611a39565b61164f565b3480156103e157600080fd5b5061019b6103f0366004611a39565b60066020526000908152604090205481565b61040a611715565b610412611742565b600580546000909155806104775760405162461bcd60e51b815260206004820152602660248201527f4e6578757347756172643a206e6f206e6174697665206665657320746f20776960448201526574686472617760d01b6064820152608401610177565b600080546040516001600160a01b039091169083908381818185875af1925050503d80600081146104c4576040519150601f19603f3d011682016040523d82523d6000602084013e6104c9565b606091505b50509050806105245760405162461bcd60e51b815260206004820152602160248201527f4e6578757347756172643a20666565207769746864726177616c206661696c656044820152601960fa1b6064820152608401610177565b505061053d6001600080516020611e6a83398151915255565b565b610547611742565b60006001600160a01b03166002846040516105629190611c53565b908152604051908190036020019020546001600160a01b0316146105e15760405162461bcd60e51b815260206004820152603060248201527f4e6578757347756172643a20626f756e747920616c726561647920657869737460448201526f1cc8199bdc881d1a1a5cc8189d59d25960821b6064820152608401610177565b60006001600160a01b038316610666576000341161065f5760405162461bcd60e51b815260206004820152603560248201527f4e6578757347756172643a206d7573742073656e64204d4154494320746f206360448201527472656174652061206e617469766520626f756e747960581b6064820152608401610177565b5034610737565b600082116106b65760405162461bcd60e51b815260206004820152601e60248201527f4e6578757347756172643a20616d6f756e74206d757374206265203e203000006044820152606401610177565b341561071f5760405162461bcd60e51b815260206004820152603260248201527f4e6578757347756172643a20646f206e6f742073656e64204d4154494320666f6044820152717220616e204552432d323020626f756e747960701b6064820152608401610177565b6107346001600160a01b03841633308561175e565b50805b6040805160e0810182523381526001600160a01b0385166020820152808201839052600060608201819052608082018190524260a083015260c08201529051600290610784908790611c53565b9081526040805160209281900383019020835181546001600160a01b03199081166001600160a01b03928316178355938501516001830180548616918316919091179055918401516002820155606084015160038083018054958616929094169182178455608086015192949293926001600160a81b03191690911790600160a01b90849081111561081857610818611b38565b021790555060a0820151600482015560c0909101516005909101553360009081526003602090815260408220805460018101825590835291200161085c8582611cf3565b50604051339061086d908690611c53565b604080519182900382206001600160a01b0387168352602083018590524283830152905190917f4ae162f9fae31f8bfda1f8fcbaaed8aa1ecaedf30e5bb4096b60c4f83f1c8cc0919081900360600190a3506108d66001600080516020611e6a83398151915255565b505050565b6001600160a01b0381166000908152600360209081526040808320805482518185028101850190935280835260609492939192909184015b828210156109bf57838290600052602060002001805461093290611c6f565b80601f016020809104026020016040519081016040528092919081815260200182805461095e90611c6f565b80156109ab5780601f10610980576101008083540402835291602001916109ab565b820191906000526020600020905b81548152906001019060200180831161098e57829003601f168201915b505050505081526020019060010190610913565b505050509050919050565b610a0a6040805160e08101825260008082526020820181905291810182905260608101829052906080820190815260200160008152602001600081525090565b8160006001600160a01b0316600282604051610a269190611c53565b908152604051908190036020019020546001600160a01b031603610a5c5760405162461bcd60e51b815260040161017790611db3565b600283604051610a6c9190611c53565b90815260408051918290036020908101832060e08401835280546001600160a01b03908116855260018201548116928501929092526002810154928401929092526003808301549182166060850152608084019160ff600160a01b9091041690811115610adb57610adb611b38565b6003811115610aec57610aec611b38565b81526020016004820154815260200160058201548152505091505b50919050565b610b15611742565b8060006001600160a01b0316600282604051610b319190611c53565b908152604051908190036020019020546001600160a01b031603610b675760405162461bcd60e51b815260040161017790611db3565b6000600283604051610b799190611c53565b90815260405190819003602001902080549091506001600160a01b03163314610bf45760405162461bcd60e51b815260206004820152602760248201527f4e6578757347756172643a206f6e6c79207468652073706f6e736f722063616e6044820152660818d85b98d95b60ca1b6064820152608401610177565b6000600382810154600160a01b900460ff1690811115610c1657610c16611b38565b14610c765760405162461bcd60e51b815260206004820152602a60248201527f4e6578757347756172643a2063616e206f6e6c792063616e63656c20616e206f60448201526970656e20626f756e747960b01b6064820152608401610177565b60028101805460038301805460ff60a01b1916600360a01b179055600090915560018201546001600160a01b0316610d4657604051600090339083908381818185875af1925050503d8060008114610cea576040519150601f19603f3d011682016040523d82523d6000602084013e610cef565b606091505b5050905080610d405760405162461bcd60e51b815260206004820152601f60248201527f4e6578757347756172643a204d4154494320726566756e64206661696c6564006044820152606401610177565b50610d5f565b6001820154610d5f906001600160a01b0316338361179a565b6040513390610d6f908690611c53565b60408051918290038220848352426020840152917fa17ce4ecb2d6361092c104ea321b3840a87b06bd7f4783976a0a2fd04f441142910160405180910390a3505050610dc86001600080516020611e6a83398151915255565b50565b610dd3611715565b6103e8811115610e2f5760405162461bcd60e51b815260206004820152602160248201527f4e6578757347756172643a206665652063616e6e6f74206578636565642031306044820152602560f81b6064820152608401610177565b60045460408051918252602082018390527f528d9479e9f9889a87a3c30c7f7ba537e5e59c4c85a37733b16e57c62df61302910160405180910390a1600455565b610e78611715565b61053d60006117cf565b610e8a611715565b6001600160a01b038116610ee05760405162461bcd60e51b815260206004820152601f60248201527f4e6578757347756172643a207a65726f206f7261636c652061646472657373006044820152606401610177565b6001546040516001600160a01b038084169216907f078c3b417dadf69374a59793b829c52001247130433427049317bde56607b1b790600090a3600180546001600160a01b0319166001600160a01b0392909216919091179055565b60008160006001600160a01b0316600282604051610f5a9190611c53565b908152604051908190036020019020546001600160a01b031603610f905760405162461bcd60e51b815260040161017790611db3565b600283604051610fa09190611c53565b9081526040519081900360200190206003015460ff600160a01b90910416915050919050565b610fce611742565b8160006001600160a01b0316600282604051610fea9190611c53565b908152604051908190036020019020546001600160a01b0316036110205760405162461bcd60e51b815260040161017790611db3565b60006002846040516110329190611c53565b90815260405190819003602001902090506000600382810154600160a01b900460ff169081111561106557611065611b38565b146110ce5760405162461bcd60e51b815260206004820152603360248201527f4e6578757347756172643a20626f756e7479206973206e6f74206f70656e206660448201527237b9103830ba31b41039bab136b4b9b9b4b7b760691b6064820152608401610177565b6001600160a01b0383166111305760405162461bcd60e51b8152602060048201526024808201527f4e6578757347756172643a207a65726f20636f6e7472696275746f72206164646044820152637265737360e01b6064820152608401610177565b80546001600160a01b03908116908416036111a35760405162461bcd60e51b815260206004820152602d60248201527f4e6578757347756172643a2073706f6e736f722063616e6e6f7420626520746860448201526c329031b7b73a3934b13aba37b960991b6064820152608401610177565b6003810180546001600160a01b0385166001600160a81b03199091168117600160a01b179091556040516111d8908690611c53565b604051908190038120428252907f544eba5e0e9fe07f991cf6b56a6facf3c2dfa77e86932d03ab3fd1189b2557b79060200160405180910390a3505061122b6001600080516020611e6a83398151915255565b5050565b611237611715565b6001600160a01b03811661126157604051631e4fbdf760e01b815260006004820152602401610177565b610dc8816117cf565b611272611742565b6001546001600160a01b031633146112d85760405162461bcd60e51b8152602060048201526024808201527f4e6578757347756172643a2063616c6c6572206973206e6f7420746865204f7260448201526361636c6560e01b6064820152608401610177565b8160006001600160a01b03166002826040516112f49190611c53565b908152604051908190036020019020546001600160a01b03160361132a5760405162461bcd60e51b815260040161017790611db3565b600060028460405161133c9190611c53565b90815260405190819003602001902090506001600382810154600160a01b900460ff169081111561136f5761136f611b38565b146113d25760405162461bcd60e51b815260206004820152602d60248201527f4e6578757347756172643a20626f756e7479206d75737420626520696e20535560448201526c424d495454454420737461746560981b6064820152608401610177565b60038101546001600160a01b038481169116146114425760405162461bcd60e51b815260206004820152602860248201527f4e6578757347756172643a20636f6e7472696275746f722061646472657373206044820152670dad2e6dac2e8c6d60c31b6064820152608401610177565b600061271060045483600201546114599190611e0a565b6114639190611e21565b905060008183600201546114779190611e43565b60038401805460ff60a01b1916600160a11b17905542600585015560018401549091506001600160a01b031661157e5781600560008282546114b99190611e56565b90915550506040516000906001600160a01b0387169083908381818185875af1925050503d8060008114611509576040519150601f19603f3d011682016040523d82523d6000602084013e61150e565b606091505b50509050806115785760405162461bcd60e51b815260206004820152603060248201527f4e6578757347756172643a204d41544943207472616e7366657220746f20636f60448201526f1b9d1c9a589d5d1bdc8819985a5b195960821b6064820152608401610177565b506115c8565b60018301546001600160a01b0316600090815260066020526040812080548492906115aa908490611e56565b909155505060018301546115c8906001600160a01b0316868361179a565b846001600160a01b0316866040516115e09190611c53565b6040805191829003822060018701548584526001600160a01b031660208401524283830152905190917f150eaa93a2becb4a62e9b72c0340f5ed3c7fcfa9b6563bd5f89944863b9f0e12919081900360600190a35050505061122b6001600080516020611e6a83398151915255565b611657611715565b61165f611742565b6001600160a01b03811660009081526006602052604081208054919055806116d75760405162461bcd60e51b815260206004820152602560248201527f4e6578757347756172643a206e6f20746f6b656e206665657320746f20776974604482015264686472617760d81b6064820152608401610177565b6116fd6116ec6000546001600160a01b031690565b6001600160a01b038416908361179a565b50610dc86001600080516020611e6a83398151915255565b6000546001600160a01b0316331461053d5760405163118cdaa760e01b8152336004820152602401610177565b61174a61181f565b6002600080516020611e6a83398151915255565b61176c84848484600161184f565b61179457604051635274afe760e01b81526001600160a01b0385166004820152602401610177565b50505050565b6117a783838360016118c1565b6108d657604051635274afe760e01b81526001600160a01b0384166004820152602401610177565b600080546001600160a01b038381166001600160a01b0319831681178455604051919092169283917f8be0079c531659141344cd1fd0a4f28419497f9722a3daafe3b4186f6b6457e09190a35050565b600080516020611e6a8339815191525460020361053d57604051633ee5aeb560e01b815260040160405180910390fd5b6040516323b872dd60e01b60008181526001600160a01b038781166004528616602452604485905291602083606481808c5af1925060016000511483166118af5783831516156118a2573d6000823e3d81fd5b6000883b113d1516831692505b60405250600060605295945050505050565b60405163a9059cbb60e01b60008181526001600160a01b038616600452602485905291602083604481808b5af19250600160005114831661191b57838315161561190e573d6000823e3d81fd5b6000873b113d1516831692505b60405250949350505050565b634e487b7160e01b600052604160045260246000fd5b600082601f83011261194e57600080fd5b813567ffffffffffffffff8082111561196957611969611927565b604051601f8301601f19908116603f0116810190828211818310171561199157611991611927565b816040528381528660208588010111156119aa57600080fd5b836020870160208301376000602085830101528094505050505092915050565b6001600160a01b0381168114610dc857600080fd5b6000806000606084860312156119f457600080fd5b833567ffffffffffffffff811115611a0b57600080fd5b611a178682870161193d565b9350506020840135611a28816119ca565b929592945050506040919091013590565b600060208284031215611a4b57600080fd5b8135611a56816119ca565b9392505050565b60005b83811015611a78578181015183820152602001611a60565b50506000910152565b6000602080830181845280855180835260408601915060408160051b870101925083870160005b82811015611aee57878503603f1901845281518051808752611acf818989018a8501611a5d565b601f01601f191695909501860194509285019290850190600101611aa8565b5092979650505050505050565b600060208284031215611b0d57600080fd5b813567ffffffffffffffff811115611b2457600080fd5b611b308482850161193d565b949350505050565b634e487b7160e01b600052602160045260246000fd5b60048110611b6c57634e487b7160e01b600052602160045260246000fd5b9052565b81516001600160a01b039081168252602080840151821690830152604080840151908301526060808401519091169082015260808083015160e0830191611bb990840182611b4e565b5060a083015160a083015260c083015160c083015292915050565b600060208284031215611be657600080fd5b5035919050565b60208101611bfb8284611b4e565b92915050565b60008060408385031215611c1457600080fd5b823567ffffffffffffffff811115611c2b57600080fd5b611c378582860161193d565b9250506020830135611c48816119ca565b809150509250929050565b60008251611c65818460208701611a5d565b9190910192915050565b600181811c90821680611c8357607f821691505b602082108103610b0757634e487b7160e01b600052602260045260246000fd5b601f8211156108d6576000816000526020600020601f850160051c81016020861015611ccc5750805b601f850160051c820191505b81811015611ceb57828155600101611cd8565b505050505050565b815167ffffffffffffffff811115611d0d57611d0d611927565b611d2181611d1b8454611c6f565b84611ca3565b602080601f831160018114611d565760008415611d3e5750858301515b600019600386901b1c1916600185901b178555611ceb565b600085815260208120601f198616915b82811015611d8557888601518255948401946001909101908401611d66565b5085821015611da35787850151600019600388901b60f8161c191681555b5050505050600190811b01905550565b60208082526021908201527f4e6578757347756172643a20626f756e747920646f6573206e6f7420657869736040820152601d60fa1b606082015260800190565b634e487b7160e01b600052601160045260246000fd5b8082028115828204841417611bfb57611bfb611df4565b600082611e3e57634e487b7160e01b600052601260045260246000fd5b500490565b81810381811115611bfb57611bfb611df4565b80820180821115611bfb57611bfb611df456fe9b779b17422d0df92223018b32b4d1fa46e071723d6817e2486d003becc55f00a2646970667358221220b85238b40a2ae3b94a73c4880870caec2d759c4fe90fa3c29bb9a61bb14de29564736f6c63430008180033",
  "linkReferences": {},
  "deployedLinkReferences": {}
}